{
  "_format": "hh-sol-artifact-1",
  "contractName": "ERC721",
  "sourceName": "contracts/token/ERC721/ERC721.sol",
  "abi": [
    {
      "inputs": [
        {
          "internalType": "string",
          "name": "name_",
          "type": "string"
        },
        {
          "internalType": "string",
          "name": "symbol_",
          "type": "string"
        }
      ],
      "stateMutability": "nonpayable",
      "type": "constructor"
    },
    {
      "anonymous": false,
      "inputs": [
        {
          "indexed": true,
          "internalType": "address",
          "name": "owner",
          "type": "address"
        },
        {
          "indexed": true,
          "internalType": "address",
          "name": "approved",
          "type": "address"
        },
        {
          "indexed": true,
          "internalType": "uint256",
          "name": "tokenId",
          "type": "uint256"
        }
      ],
      "name": "Approval",
      "type": "event"
    },
    {
      "anonymous": false,
      "inputs": [
        {
          "indexed": true,
          "internalType": "address",
          "name": "owner",
          "type": "address"
        },
        {
          "indexed": true,
          "internalType": "address",
          "name": "operator",
          "type": "address"
        },
        {
          "indexed": false,
          "internalType": "bool",
          "name": "approved",
          "type": "bool"
        }
      ],
      "name": "ApprovalForAll",
      "type": "event"
    },
    {
      "anonymous": false,
      "inputs": [
        {
          "indexed": true,
          "internalType": "address",
          "name": "from",
          "type": "address"
        },
        {
          "indexed": true,
          "internalType": "address",
          "name": "to",
          "type": "address"
        },
        {
          "indexed": true,
          "internalType": "uint256",
          "name": "tokenId",
          "type": "uint256"
        }
      ],
      "name": "Transfer",
      "type": "event"
    },
    {
      "inputs": [
        {
          "internalType": "address",
          "name": "from",
          "type": "address"
        },
        {
          "internalType": "address",
          "name": "to",
          "type": "address"
        },
        {
          "internalType": "uint256",
          "name": "tokenId",
          "type": "uint256"
        }
      ],
      "name": "_transfer",
      "outputs": [],
      "stateMutability": "nonpayable",
      "type": "function"
    },
    {
      "inputs": [
        {
          "internalType": "address",
          "name": "to",
          "type": "address"
        },
        {
          "internalType": "uint256",
          "name": "tokenId",
          "type": "uint256"
        }
      ],
      "name": "approve",
      "outputs": [],
      "stateMutability": "nonpayable",
      "type": "function"
    },
    {
      "inputs": [
        {
          "internalType": "address",
          "name": "owner",
          "type": "address"
        }
      ],
      "name": "balanceOf",
      "outputs": [
        {
          "internalType": "uint256",
          "name": "",
          "type": "uint256"
        }
      ],
      "stateMutability": "view",
      "type": "function"
    },
    {
      "inputs": [
        {
          "internalType": "uint256",
          "name": "tokenId",
          "type": "uint256"
        }
      ],
      "name": "getApproved",
      "outputs": [
        {
          "internalType": "address",
          "name": "",
          "type": "address"
        }
      ],
      "stateMutability": "view",
      "type": "function"
    },
    {
      "inputs": [
        {
          "internalType": "address",
          "name": "to",
          "type": "address"
        },
        {
          "internalType": "uint256",
          "name": "tokenId",
          "type": "uint256"
        }
      ],
      "name": "getOwner",
      "outputs": [
        {
          "internalType": "address",
          "name": "",
          "type": "address"
        }
      ],
      "stateMutability": "view",
      "type": "function"
    },
    {
      "inputs": [
        {
          "internalType": "uint256",
          "name": "tokenId",
          "type": "uint256"
        }
      ],
      "name": "getResourceKey",
      "outputs": [
        {
          "internalType": "string",
          "name": "",
          "type": "string"
        }
      ],
      "stateMutability": "view",
      "type": "function"
    },
    {
      "inputs": [
        {
          "internalType": "address",
          "name": "to",
          "type": "address"
        },
        {
          "internalType": "uint256",
          "name": "tokenId",
          "type": "uint256"
        }
      ],
      "name": "getSender",
      "outputs": [
        {
          "internalType": "address",
          "name": "",
          "type": "address"
        }
      ],
      "stateMutability": "view",
      "type": "function"
    },
    {
      "inputs": [
        {
          "internalType": "address",
          "name": "owner",
          "type": "address"
        },
        {
          "internalType": "address",
          "name": "operator",
          "type": "address"
        }
      ],
      "name": "isApprovedForAll",
      "outputs": [
        {
          "internalType": "bool",
          "name": "",
          "type": "bool"
        }
      ],
      "stateMutability": "view",
      "type": "function"
    },
    {
      "inputs": [],
      "name": "name",
      "outputs": [
        {
          "internalType": "string",
          "name": "",
          "type": "string"
        }
      ],
      "stateMutability": "view",
      "type": "function"
    },
    {
      "inputs": [
        {
          "internalType": "uint256",
          "name": "tokenId",
          "type": "uint256"
        }
      ],
      "name": "ownerOf",
      "outputs": [
        {
          "internalType": "address",
          "name": "",
          "type": "address"
        }
      ],
      "stateMutability": "view",
      "type": "function"
    },
    {
      "inputs": [
        {
          "internalType": "address",
          "name": "to",
          "type": "address"
        },
        {
          "internalType": "uint256",
          "name": "tokenId",
          "type": "uint256"
        },
        {
          "internalType": "string",
          "name": "resourceKey",
          "type": "string"
        }
      ],
      "name": "safeMint",
      "outputs": [],
      "stateMutability": "nonpayable",
      "type": "function"
    },
    {
      "inputs": [
        {
          "internalType": "address",
          "name": "from",
          "type": "address"
        },
        {
          "internalType": "address",
          "name": "to",
          "type": "address"
        },
        {
          "internalType": "uint256",
          "name": "tokenId",
          "type": "uint256"
        }
      ],
      "name": "safeTransferFrom",
      "outputs": [],
      "stateMutability": "nonpayable",
      "type": "function"
    },
    {
      "inputs": [
        {
          "internalType": "address",
          "name": "from",
          "type": "address"
        },
        {
          "internalType": "address",
          "name": "to",
          "type": "address"
        },
        {
          "internalType": "uint256",
          "name": "tokenId",
          "type": "uint256"
        },
        {
          "internalType": "bytes",
          "name": "_data",
          "type": "bytes"
        }
      ],
      "name": "safeTransferFrom",
      "outputs": [],
      "stateMutability": "nonpayable",
      "type": "function"
    },
    {
      "inputs": [
        {
          "internalType": "address",
          "name": "operator",
          "type": "address"
        },
        {
          "internalType": "bool",
          "name": "approved",
          "type": "bool"
        }
      ],
      "name": "setApprovalForAll",
      "outputs": [],
      "stateMutability": "nonpayable",
      "type": "function"
    },
    {
      "inputs": [
        {
          "internalType": "bytes4",
          "name": "interfaceId",
          "type": "bytes4"
        }
      ],
      "name": "supportsInterface",
      "outputs": [
        {
          "internalType": "bool",
          "name": "",
          "type": "bool"
        }
      ],
      "stateMutability": "view",
      "type": "function"
    },
    {
      "inputs": [],
      "name": "symbol",
      "outputs": [
        {
          "internalType": "string",
          "name": "",
          "type": "string"
        }
      ],
      "stateMutability": "view",
      "type": "function"
    },
    {
      "inputs": [
        {
          "internalType": "uint256",
          "name": "tokenId",
          "type": "uint256"
        }
      ],
      "name": "tokenURI",
      "outputs": [
        {
          "internalType": "string",
          "name": "",
          "type": "string"
        }
      ],
      "stateMutability": "view",
      "type": "function"
    },
    {
      "inputs": [
        {
          "internalType": "address",
          "name": "from",
          "type": "address"
        },
        {
          "internalType": "address",
          "name": "to",
          "type": "address"
        },
        {
          "internalType": "uint256",
          "name": "tokenId",
          "type": "uint256"
        }
      ],
      "name": "transferFrom",
      "outputs": [],
      "stateMutability": "nonpayable",
      "type": "function"
    }
  ],
  "bytecode": "0x60806040523480156200001157600080fd5b5060405162002dc338038062002dc383398181016040528101906200003791906200019b565b81600090805190602001906200004f92919062000079565b5080600190805190602001906200006892919062000079565b50600060028190555050506200037e565b8280546200008790620002a3565b90600052602060002090601f016020900481019282620000ab5760008555620000f7565b82601f10620000c657805160ff1916838001178555620000f7565b82800160010185558215620000f7579182015b82811115620000f6578251825591602001919060010190620000d9565b5b5090506200010691906200010a565b5090565b5b80821115620001255760008160009055506001016200010b565b5090565b6000620001406200013a8462000237565b6200020e565b9050828152602081018484840111156200015957600080fd5b620001668482856200026d565b509392505050565b600082601f8301126200018057600080fd5b81516200019284826020860162000129565b91505092915050565b60008060408385031215620001af57600080fd5b600083015167ffffffffffffffff811115620001ca57600080fd5b620001d8858286016200016e565b925050602083015167ffffffffffffffff811115620001f657600080fd5b62000204858286016200016e565b9150509250929050565b60006200021a6200022d565b9050620002288282620002d9565b919050565b6000604051905090565b600067ffffffffffffffff8211156200025557620002546200033e565b5b62000260826200036d565b9050602081019050919050565b60005b838110156200028d57808201518184015260208101905062000270565b838111156200029d576000848401525b50505050565b60006002820490506001821680620002bc57607f821691505b60208210811415620002d357620002d26200030f565b5b50919050565b620002e4826200036d565b810181811067ffffffffffffffff821117156200030657620003056200033e565b5b80604052505050565b7f4e487b7100000000000000000000000000000000000000000000000000000000600052602260045260246000fd5b7f4e487b7100000000000000000000000000000000000000000000000000000000600052604160045260246000fd5b6000601f19601f8301169050919050565b612a35806200038e6000396000f3fe608060405234801561001057600080fd5b50600436106101165760003560e01c80636352211e116100a2578063b88d4fde11610071578063b88d4fde14610303578063c7e5ecbe1461031f578063c87b56dd1461034f578063cd279c7c1461037f578063e985e9c51461039b57610116565b80636352211e1461026957806370a082311461029957806395d89b41146102c9578063a22cb465146102e757610116565b806317f62e9a116100e957806317f62e9a146101b557806323b872dd146101e55780632f634a901461020157806330e0789e1461023157806342842e0e1461024d57610116565b806301ffc9a71461011b57806306fdde031461014b578063081812fc14610169578063095ea7b314610199575b600080fd5b61013560048036038101906101309190611c06565b6103cb565b6040516101429190611fc6565b60405180910390f35b6101536104ad565b6040516101609190611fe1565b60405180910390f35b610183600480360381019061017e9190611c58565b61053f565b6040516101909190611f5f565b60405180910390f35b6101b360048036038101906101ae9190611b63565b6105c4565b005b6101cf60048036038101906101ca9190611b63565b6106dc565b6040516101dc9190611f5f565b60405180910390f35b6101ff60048036038101906101fa9190611a5d565b6106f3565b005b61021b60048036038101906102169190611b63565b610753565b6040516102289190611f5f565b60405180910390f35b61024b60048036038101906102469190611a5d565b61076b565b005b61026760048036038101906102629190611a5d565b6109c7565b005b610283600480360381019061027e9190611c58565b6109e7565b6040516102909190611f5f565b60405180910390f35b6102b360048036038101906102ae91906119f8565b610a99565b6040516102c091906121c3565b60405180910390f35b6102d1610b51565b6040516102de9190611fe1565b60405180910390f35b61030160048036038101906102fc9190611b27565b610be3565b005b61031d60048036038101906103189190611aac565b610d64565b005b61033960048036038101906103349190611c58565b610dc6565b6040516103469190611fe1565b60405180910390f35b61036960048036038101906103649190611c58565b610e71565b6040516103769190611fe1565b60405180910390f35b61039960048036038101906103949190611b9f565b610f18565b005b6103b560048036038101906103b09190611a21565b610f3d565b6040516103c29190611fc6565b60405180910390f35b60007f80ac58cd000000000000000000000000000000000000000000000000000000007bffffffffffffffffffffffffffffffffffffffffffffffffffffffff1916827bffffffffffffffffffffffffffffffffffffffffffffffffffffffff1916148061049657507f5b5e139f000000000000000000000000000000000000000000000000000000007bffffffffffffffffffffffffffffffffffffffffffffffffffffffff1916827bffffffffffffffffffffffffffffffffffffffffffffffffffffffff1916145b806104a657506104a582610fd1565b5b9050919050565b6060600080546104bc90612419565b80601f01602080910402602001604051908101604052809291908181526020018280546104e890612419565b80156105355780601f1061050a57610100808354040283529160200191610535565b820191906000526020600020905b81548152906001019060200180831161051857829003601f168201915b5050505050905090565b600061054a8261103b565b610589576040517f08c379a000000000000000000000000000000000000000000000000000000000815260040161058090612123565b60405180910390fd5b6006600083815260200190815260200160002060009054906101000a900473ffffffffffffffffffffffffffffffffffffffff169050919050565b60006105cf826109e7565b90508073ffffffffffffffffffffffffffffffffffffffff168373ffffffffffffffffffffffffffffffffffffffff161415610640576040517f08c379a000000000000000000000000000000000000000000000000000000000815260040161063790612183565b60405180910390fd5b8073ffffffffffffffffffffffffffffffffffffffff1661065f6110a7565b73ffffffffffffffffffffffffffffffffffffffff16148061068e575061068d816106886110a7565b610f3d565b5b6106cd576040517f08c379a00000000000000000000000000000000000000000000000000000000081526004016106c4906120a3565b60405180910390fd5b6106d783836110af565b505050565b6000806106e76110a7565b90508091505092915050565b6107046106fe6110a7565b82611168565b610743576040517f08c379a000000000000000000000000000000000000000000000000000000000815260040161073a906121a3565b60405180910390fd5b61074e83838361076b565b505050565b60008061075f836109e7565b90508091505092915050565b8273ffffffffffffffffffffffffffffffffffffffff1661078b826109e7565b73ffffffffffffffffffffffffffffffffffffffff16146107e1576040517f08c379a00000000000000000000000000000000000000000000000000000000081526004016107d890612143565b60405180910390fd5b600073ffffffffffffffffffffffffffffffffffffffff168273ffffffffffffffffffffffffffffffffffffffff161415610851576040517f08c379a000000000000000000000000000000000000000000000000000000000815260040161084890612043565b60405180910390fd5b61085c838383611246565b6108676000826110af565b6001600560008573ffffffffffffffffffffffffffffffffffffffff1673ffffffffffffffffffffffffffffffffffffffff16815260200190815260200160002060008282546108b7919061232f565b925050819055506001600560008473ffffffffffffffffffffffffffffffffffffffff1673ffffffffffffffffffffffffffffffffffffffff168152602001908152602001600020600082825461090e91906122a8565b92505081905550816004600083815260200190815260200160002060006101000a81548173ffffffffffffffffffffffffffffffffffffffff021916908373ffffffffffffffffffffffffffffffffffffffff160217905550808273ffffffffffffffffffffffffffffffffffffffff168473ffffffffffffffffffffffffffffffffffffffff167fddf252ad1be2c89b69c2b068fc378daa952ba7f163c4a11628f55a4df523b3ef60405160405180910390a4505050565b6109e283838360405180602001604052806000815250610d64565b505050565b6000806004600084815260200190815260200160002060009054906101000a900473ffffffffffffffffffffffffffffffffffffffff169050600073ffffffffffffffffffffffffffffffffffffffff168173ffffffffffffffffffffffffffffffffffffffff161415610a90576040517f08c379a0000000000000000000000000000000000000000000000000000000008152600401610a87906120e3565b60405180910390fd5b80915050919050565b60008073ffffffffffffffffffffffffffffffffffffffff168273ffffffffffffffffffffffffffffffffffffffff161415610b0a576040517f08c379a0000000000000000000000000000000000000000000000000000000008152600401610b01906120c3565b60405180910390fd5b600560008373ffffffffffffffffffffffffffffffffffffffff1673ffffffffffffffffffffffffffffffffffffffff168152602001908152602001600020549050919050565b606060018054610b6090612419565b80601f0160208091040260200160405190810160405280929190818152602001828054610b8c90612419565b8015610bd95780601f10610bae57610100808354040283529160200191610bd9565b820191906000526020600020905b815481529060010190602001808311610bbc57829003601f168201915b5050505050905090565b610beb6110a7565b73ffffffffffffffffffffffffffffffffffffffff168273ffffffffffffffffffffffffffffffffffffffff161415610c59576040517f08c379a0000000000000000000000000000000000000000000000000000000008152600401610c5090612063565b60405180910390fd5b8060076000610c666110a7565b73ffffffffffffffffffffffffffffffffffffffff1673ffffffffffffffffffffffffffffffffffffffff16815260200190815260200160002060008473ffffffffffffffffffffffffffffffffffffffff1673ffffffffffffffffffffffffffffffffffffffff16815260200190815260200160002060006101000a81548160ff0219169083151502179055508173ffffffffffffffffffffffffffffffffffffffff16610d136110a7565b73ffffffffffffffffffffffffffffffffffffffff167f17307eab39ab6107e8899845ad3d59bd9653f200f220920489ca2b5937696c3183604051610d589190611fc6565b60405180910390a35050565b610d75610d6f6110a7565b83611168565b610db4576040517f08c379a0000000000000000000000000000000000000000000000000000000008152600401610dab906121a3565b60405180910390fd5b610dc08484848461124b565b50505050565b60606000600360008481526020019081526020016000208054610de890612419565b80601f0160208091040260200160405190810160405280929190818152602001828054610e1490612419565b8015610e615780601f10610e3657610100808354040283529160200191610e61565b820191906000526020600020905b815481529060010190602001808311610e4457829003601f168201915b5050505050905080915050919050565b6060610e7c8261103b565b610ebb576040517f08c379a0000000000000000000000000000000000000000000000000000000008152600401610eb290612163565b60405180910390fd5b6000610ec56112a7565b90506000815111610ee55760405180602001604052806000815250610f10565b80610eef846112be565b604051602001610f00929190611f3b565b6040516020818303038152906040525b915050919050565b6001600254610f2791906122a8565b600281905550610f3883838361146b565b505050565b6000600760008473ffffffffffffffffffffffffffffffffffffffff1673ffffffffffffffffffffffffffffffffffffffff16815260200190815260200160002060008373ffffffffffffffffffffffffffffffffffffffff1673ffffffffffffffffffffffffffffffffffffffff16815260200190815260200160002060009054906101000a900460ff16905092915050565b60007f01ffc9a7000000000000000000000000000000000000000000000000000000007bffffffffffffffffffffffffffffffffffffffffffffffffffffffff1916827bffffffffffffffffffffffffffffffffffffffffffffffffffffffff1916149050919050565b60008073ffffffffffffffffffffffffffffffffffffffff166004600084815260200190815260200160002060009054906101000a900473ffffffffffffffffffffffffffffffffffffffff1673ffffffffffffffffffffffffffffffffffffffff1614159050919050565b600033905090565b816006600083815260200190815260200160002060006101000a81548173ffffffffffffffffffffffffffffffffffffffff021916908373ffffffffffffffffffffffffffffffffffffffff160217905550808273ffffffffffffffffffffffffffffffffffffffff16611122836109e7565b73ffffffffffffffffffffffffffffffffffffffff167f8c5be1e5ebec7d5bd14f71427d1e84f3dd0314c0f7b2291e5b200ac8c7c3b92560405160405180910390a45050565b60006111738261103b565b6111b2576040517f08c379a00000000000000000000000000000000000000000000000000000000081526004016111a990612083565b60405180910390fd5b60006111bd836109e7565b90508073ffffffffffffffffffffffffffffffffffffffff168473ffffffffffffffffffffffffffffffffffffffff16148061122c57508373ffffffffffffffffffffffffffffffffffffffff166112148461053f565b73ffffffffffffffffffffffffffffffffffffffff16145b8061123d575061123c8185610f3d565b5b91505092915050565b505050565b61125684848461076b565b6112628484848461147b565b6112a1576040517f08c379a000000000000000000000000000000000000000000000000000000000815260040161129890612003565b60405180910390fd5b50505050565b606060405180602001604052806000815250905090565b60606000821415611306576040518060400160405280600181526020017f30000000000000000000000000000000000000000000000000000000000000008152509050611466565b600082905060005b600082146113385780806113219061247c565b915050600a8261133191906122fe565b915061130e565b60008167ffffffffffffffff81111561137a577f4e487b7100000000000000000000000000000000000000000000000000000000600052604160045260246000fd5b6040519080825280601f01601f1916602001820160405280156113ac5781602001600182028036833780820191505090505b5090505b6000851461145f576001826113c5919061232f565b9150600a856113d491906124c5565b60306113e091906122a8565b60f81b81838151811061141c577f4e487b7100000000000000000000000000000000000000000000000000000000600052603260045260246000fd5b60200101907effffffffffffffffffffffffffffffffffffffffffffffffffffffffffffff1916908160001a905350600a8561145891906122fe565b94506113b0565b8093505050505b919050565b611476838383611612565b505050565b600061149c8473ffffffffffffffffffffffffffffffffffffffff16611809565b15611605578373ffffffffffffffffffffffffffffffffffffffff1663150b7a026114c56110a7565b8786866040518563ffffffff1660e01b81526004016114e79493929190611f7a565b602060405180830381600087803b15801561150157600080fd5b505af192505050801561153257506040513d601f19601f8201168201806040525081019061152f9190611c2f565b60015b6115b5573d8060008114611562576040519150601f19603f3d011682016040523d82523d6000602084013e611567565b606091505b506000815114156115ad576040517f08c379a00000000000000000000000000000000000000000000000000000000081526004016115a490612003565b60405180910390fd5b805181602001fd5b63150b7a0260e01b7bffffffffffffffffffffffffffffffffffffffffffffffffffffffff1916817bffffffffffffffffffffffffffffffffffffffffffffffffffffffff19161491505061160a565b600190505b949350505050565b600073ffffffffffffffffffffffffffffffffffffffff168373ffffffffffffffffffffffffffffffffffffffff161415611682576040517f08c379a000000000000000000000000000000000000000000000000000000000815260040161167990612103565b60405180910390fd5b61168b8261103b565b156116cb576040517f08c379a00000000000000000000000000000000000000000000000000000000081526004016116c290612023565b60405180910390fd5b6116d760008484611246565b6001600560008573ffffffffffffffffffffffffffffffffffffffff1673ffffffffffffffffffffffffffffffffffffffff168152602001908152602001600020600082825461172791906122a8565b92505081905550826004600084815260200190815260200160002060006101000a81548173ffffffffffffffffffffffffffffffffffffffff021916908373ffffffffffffffffffffffffffffffffffffffff160217905550806003600084815260200190815260200160002090805190602001906117a792919061181c565b50818373ffffffffffffffffffffffffffffffffffffffff16600073ffffffffffffffffffffffffffffffffffffffff167fddf252ad1be2c89b69c2b068fc378daa952ba7f163c4a11628f55a4df523b3ef60405160405180910390a4505050565b600080823b905060008111915050919050565b82805461182890612419565b90600052602060002090601f01602090048101928261184a5760008555611891565b82601f1061186357805160ff1916838001178555611891565b82800160010185558215611891579182015b82811115611890578251825591602001919060010190611875565b5b50905061189e91906118a2565b5090565b5b808211156118bb5760008160009055506001016118a3565b5090565b60006118d26118cd84612203565b6121de565b9050828152602081018484840111156118ea57600080fd5b6118f58482856123d7565b509392505050565b600061191061190b84612234565b6121de565b90508281526020810184848401111561192857600080fd5b6119338482856123d7565b509392505050565b60008135905061194a816129a3565b92915050565b60008135905061195f816129ba565b92915050565b600081359050611974816129d1565b92915050565b600081519050611989816129d1565b92915050565b600082601f8301126119a057600080fd5b81356119b08482602086016118bf565b91505092915050565b600082601f8301126119ca57600080fd5b81356119da8482602086016118fd565b91505092915050565b6000813590506119f2816129e8565b92915050565b600060208284031215611a0a57600080fd5b6000611a188482850161193b565b91505092915050565b60008060408385031215611a3457600080fd5b6000611a428582860161193b565b9250506020611a538582860161193b565b9150509250929050565b600080600060608486031215611a7257600080fd5b6000611a808682870161193b565b9350506020611a918682870161193b565b9250506040611aa2868287016119e3565b9150509250925092565b60008060008060808587031215611ac257600080fd5b6000611ad08782880161193b565b9450506020611ae18782880161193b565b9350506040611af2878288016119e3565b925050606085013567ffffffffffffffff811115611b0f57600080fd5b611b1b8782880161198f565b91505092959194509250565b60008060408385031215611b3a57600080fd5b6000611b488582860161193b565b9250506020611b5985828601611950565b9150509250929050565b60008060408385031215611b7657600080fd5b6000611b848582860161193b565b9250506020611b95858286016119e3565b9150509250929050565b600080600060608486031215611bb457600080fd5b6000611bc28682870161193b565b9350506020611bd3868287016119e3565b925050604084013567ffffffffffffffff811115611bf057600080fd5b611bfc868287016119b9565b9150509250925092565b600060208284031215611c1857600080fd5b6000611c2684828501611965565b91505092915050565b600060208284031215611c4157600080fd5b6000611c4f8482850161197a565b91505092915050565b600060208284031215611c6a57600080fd5b6000611c78848285016119e3565b91505092915050565b611c8a81612363565b82525050565b611c9981612375565b82525050565b6000611caa82612265565b611cb4818561227b565b9350611cc48185602086016123e6565b611ccd816125b2565b840191505092915050565b6000611ce382612270565b611ced818561228c565b9350611cfd8185602086016123e6565b611d06816125b2565b840191505092915050565b6000611d1c82612270565b611d26818561229d565b9350611d368185602086016123e6565b80840191505092915050565b6000611d4f60328361228c565b9150611d5a826125c3565b604082019050919050565b6000611d72601c8361228c565b9150611d7d82612612565b602082019050919050565b6000611d9560248361228c565b9150611da08261263b565b604082019050919050565b6000611db860198361228c565b9150611dc38261268a565b602082019050919050565b6000611ddb602c8361228c565b9150611de6826126b3565b604082019050919050565b6000611dfe60388361228c565b9150611e0982612702565b604082019050919050565b6000611e21602a8361228c565b9150611e2c82612751565b604082019050919050565b6000611e4460298361228c565b9150611e4f826127a0565b604082019050919050565b6000611e6760208361228c565b9150611e72826127ef565b602082019050919050565b6000611e8a602c8361228c565b9150611e9582612818565b604082019050919050565b6000611ead60298361228c565b9150611eb882612867565b604082019050919050565b6000611ed0602f8361228c565b9150611edb826128b6565b604082019050919050565b6000611ef360218361228c565b9150611efe82612905565b604082019050919050565b6000611f1660318361228c565b9150611f2182612954565b604082019050919050565b611f35816123cd565b82525050565b6000611f478285611d11565b9150611f538284611d11565b91508190509392505050565b6000602082019050611f746000830184611c81565b92915050565b6000608082019050611f8f6000830187611c81565b611f9c6020830186611c81565b611fa96040830185611f2c565b8181036060830152611fbb8184611c9f565b905095945050505050565b6000602082019050611fdb6000830184611c90565b92915050565b60006020820190508181036000830152611ffb8184611cd8565b905092915050565b6000602082019050818103600083015261201c81611d42565b9050919050565b6000602082019050818103600083015261203c81611d65565b9050919050565b6000602082019050818103600083015261205c81611d88565b9050919050565b6000602082019050818103600083015261207c81611dab565b9050919050565b6000602082019050818103600083015261209c81611dce565b9050919050565b600060208201905081810360008301526120bc81611df1565b9050919050565b600060208201905081810360008301526120dc81611e14565b9050919050565b600060208201905081810360008301526120fc81611e37565b9050919050565b6000602082019050818103600083015261211c81611e5a565b9050919050565b6000602082019050818103600083015261213c81611e7d565b9050919050565b6000602082019050818103600083015261215c81611ea0565b9050919050565b6000602082019050818103600083015261217c81611ec3565b9050919050565b6000602082019050818103600083015261219c81611ee6565b9050919050565b600060208201905081810360008301526121bc81611f09565b9050919050565b60006020820190506121d86000830184611f2c565b92915050565b60006121e86121f9565b90506121f4828261244b565b919050565b6000604051905090565b600067ffffffffffffffff82111561221e5761221d612583565b5b612227826125b2565b9050602081019050919050565b600067ffffffffffffffff82111561224f5761224e612583565b5b612258826125b2565b9050602081019050919050565b600081519050919050565b600081519050919050565b600082825260208201905092915050565b600082825260208201905092915050565b600081905092915050565b60006122b3826123cd565b91506122be836123cd565b9250827fffffffffffffffffffffffffffffffffffffffffffffffffffffffffffffffff038211156122f3576122f26124f6565b5b828201905092915050565b6000612309826123cd565b9150612314836123cd565b92508261232457612323612525565b5b828204905092915050565b600061233a826123cd565b9150612345836123cd565b925082821015612358576123576124f6565b5b828203905092915050565b600061236e826123ad565b9050919050565b60008115159050919050565b60007fffffffff0000000000000000000000000000000000000000000000000000000082169050919050565b600073ffffffffffffffffffffffffffffffffffffffff82169050919050565b6000819050919050565b82818337600083830152505050565b60005b838110156124045780820151818401526020810190506123e9565b83811115612413576000848401525b50505050565b6000600282049050600182168061243157607f821691505b6020821081141561244557612444612554565b5b50919050565b612454826125b2565b810181811067ffffffffffffffff8211171561247357612472612583565b5b80604052505050565b6000612487826123cd565b91507fffffffffffffffffffffffffffffffffffffffffffffffffffffffffffffffff8214156124ba576124b96124f6565b5b600182019050919050565b60006124d0826123cd565b91506124db836123cd565b9250826124eb576124ea612525565b5b828206905092915050565b7f4e487b7100000000000000000000000000000000000000000000000000000000600052601160045260246000fd5b7f4e487b7100000000000000000000000000000000000000000000000000000000600052601260045260246000fd5b7f4e487b7100000000000000000000000000000000000000000000000000000000600052602260045260246000fd5b7f4e487b7100000000000000000000000000000000000000000000000000000000600052604160045260246000fd5b6000601f19601f8301169050919050565b7f4552433732313a207472616e7366657220746f206e6f6e20455243373231526560008201527f63656976657220696d706c656d656e7465720000000000000000000000000000602082015250565b7f4552433732313a20746f6b656e20616c7265616479206d696e74656400000000600082015250565b7f4552433732313a207472616e7366657220746f20746865207a65726f2061646460008201527f7265737300000000000000000000000000000000000000000000000000000000602082015250565b7f4552433732313a20617070726f766520746f2063616c6c657200000000000000600082015250565b7f4552433732313a206f70657261746f7220717565727920666f72206e6f6e657860008201527f697374656e7420746f6b656e0000000000000000000000000000000000000000602082015250565b7f4552433732313a20617070726f76652063616c6c6572206973206e6f74206f7760008201527f6e6572206e6f7220617070726f76656420666f7220616c6c0000000000000000602082015250565b7f4552433732313a2062616c616e636520717565727920666f7220746865207a6560008201527f726f206164647265737300000000000000000000000000000000000000000000602082015250565b7f4552433732313a206f776e657220717565727920666f72206e6f6e657869737460008201527f656e7420746f6b656e0000000000000000000000000000000000000000000000602082015250565b7f4552433732313a206d696e7420746f20746865207a65726f2061646472657373600082015250565b7f4552433732313a20617070726f76656420717565727920666f72206e6f6e657860008201527f697374656e7420746f6b656e0000000000000000000000000000000000000000602082015250565b7f4552433732313a207472616e73666572206f6620746f6b656e2074686174206960008201527f73206e6f74206f776e0000000000000000000000000000000000000000000000602082015250565b7f4552433732314d657461646174613a2055524920717565727920666f72206e6f60008201527f6e6578697374656e7420746f6b656e0000000000000000000000000000000000602082015250565b7f4552433732313a20617070726f76616c20746f2063757272656e74206f776e6560008201527f7200000000000000000000000000000000000000000000000000000000000000602082015250565b7f4552433732313a207472616e736665722063616c6c6572206973206e6f74206f60008201527f776e6572206e6f7220617070726f766564000000000000000000000000000000602082015250565b6129ac81612363565b81146129b757600080fd5b50565b6129c381612375565b81146129ce57600080fd5b50565b6129da81612381565b81146129e557600080fd5b50565b6129f1816123cd565b81146129fc57600080fd5b5056fea2646970667358221220f1205391a9ab06ac141fa4170f0dda6f935f9ce2d244f67fbafca4c9bc899f2164736f6c63430008030033",
  "linkReferences": {},
  "deployedLinkReferences": {}
}